:020000021000EC
:10F000000C9472F80C9491F80C9491F80C9491F87B
:10F010000C9491F80C9491F80C9491F80C9491F84C
:10F020000C9491F80C9491F80C9491F80C9491F83C
:10F030000C9491F80C9491F80C9491F80C9491F82C
:10F040000C9491F80C9491F80C9491F80C9491F81C
:10F050000C9491F80C9491F80C9491F80C9491F80C
:10F060000C9491F80C9491F80C9491F80C9491F8FC
:10F070000C9491F80C9491F80C9491F80C9491F8EC
:10F080000C9491F80C9491F80C9491F80C9491F8DC
:10F090000C9491F80C9491F80C9491F80C9491F8CC
:10F0A0000C9491F80C9491F80C9491F80C9491F8BC
:10F0B0000C9491F80C9491F80C9491F80C9491F8AC
:10F0C0000C9491F80C9491F80C9491F80C9491F89C
:10F0D0000C9491F80C9491F80C9491F80C9491F88C
:10F0E0000C9491F811241FBECFEFD1E2DEBFCDBF4B
:10F0F00012E0A0E0B2E0E8EEF9EF01E00BBF02C0E1
:10F1000007900D92A833B107D9F713E0A8E3B2E056
:10F1100001C01D92A334B107E1F70E94BBF90C9422
:10F12000F2FC0C9400F8982F80913802813019F08D
:10F13000823041F008958091C00085FFFCCF90930C
:10F14000C60008958091C80085FFFCCF9093CE0043
:10F1500008951F93982F9595959595959595905D04
:10F160008F708A3054F4182F105D892F0E9493F805
:10F17000812F0E9493F81F910895182F195A892FF3
:10F180000E9493F8812F0E9493F81F910895EF92A7
:10F19000FF920F931F932F9880913802813071F165
:10F1A000823031F080E01F910F91FF90EF90089531
:10F1B000EE24FF2487018091C80087FD17C00894C2
:10F1C000E11CF11C011D111D81E4E81682E4F80622
:10F1D0008FE0080780E0180770F3E0913A02F091A1
:10F1E0003B0209958091C80087FFE9CF2F98809155
:10F1F000CE001F910F91FF90EF900895EE24FF2411
:10F2000087018091C00087FD17C00894E11CF11CA4
:10F21000011D111D81E4E81682E4F8068FE008075D
:10F2200080E0180770F3E0913A02F0913B020995F3
:10F230008091C00087FFE9CF2F988091C6001F9171
:10F240000F91FF90EF9008951F930E94C7F8182F19
:10F250000E9493F8113634F410330CF01053812FC0
:10F260001F9108951755812F1F9108951F930E9494
:10F2700024F9182F0E9424F91295107F810F1F91F5
:10F280000895982F20913802992339F0213031F0D8
:10F29000223061F091509923C9F708958091C00000
:10F2A00087FFFCCF8091C6009150F5CF8091C800B8
:10F2B00087FFFCCF8091CE009150EDCF1F93182F88
:10F2C0000E94C7F8803281F0809139028F5F80936D
:10F2D0003902853011F01F910895E0913A02F091C2
:10F2E0003B0209951F91089584E10E9493F8812FB4
:10F2F0000E9493F880E10E9493F81F9108950E9464
:10F30000C7F8803271F0809139028F5F80933902A3
:10F31000853009F00895E0913A02F0913B02099599
:10F32000089584E10E9493F880E10E9493F8089583
:10F3300028E833E140E951E0FA013197F1F7215033
:10F340003040D1F740E951E08823A1F02F9A28EE10
:10F3500033E0FA013197F1F721503040D1F72F987F
:10F3600020E233E0FA013197F1F721503040D1F734
:10F37000815061F70895CF92DF92EF92FF920F9341
:10F380001F93CF93DF9394B714BE80916000886180
:10F39000809360001092600091FF88C281E08093AA
:10F3A000380280E18093C4001092C5001092C00022
:10F3B00086E08093C20088E18093C1006898709ACB
:10F3C000279A85E00E9498F983E00E9498F910E05E
:10F3D000FF24F3940E94C7F88033D1F1112309F47C
:10F3E00013C1813309F43FC0803409F45DC0813416
:10F3F00009F463C0823409F473C0853409F476C01B
:10F40000803531F1823521F1813509F474C28535B9
:10F4100009F473C0863509F4B7C1843609F43CC1D8
:10F42000843709F48BC0853709F472C0863709F434
:10F4300052C0813209F4ECC0809139028F5F809311
:10F440003902853049F011E00E94C7F8803331F667
:10F450000E947FF911E0F8CFE0913A02F0913B026F
:10F46000099511E0F1CF0E94C7F8803229F784E1B5
:10F470000E9493F881E40E9493F886E50E9493F835
:10F4800082E50E9493F880E20E9493F889E40E944A
:10F4900093F883E50E9493F880E50E9493F880E159
:10F4A0000E9493F811E0D0CF0E94C7F8863880F20E
:10F4B0000E94C7F80E947FF9CDCF0E94C7F880381C
:10F4C00009F478C1813809F46BC1823809F46DC13F
:10F4D000883909F454C180E00E945EF911E0B4CF8C
:10F4E00084E10E9441F90E947FF9B4CF85E00E9437
:10F4F00041F90E947FF911E0A7CF0E94C7F88093DD
:10F500003C020E94C7F880933D020E947FF9A2CF7F
:10F510000E94C7F8803209F08FCF84E10E9493F8EF
:10F520008EE10E9493F887E90E9493F883E00E949D
:10F5300093F880E10E9493F811E086CF0E94C7F80B
:10F5400080933F030E94C7F880933E0320913C02C2
:10F5500030913D0237FDC3C1809142038D7F80937E
:10F560004203220F331F30933D0220933C020E943E
:10F57000C7F8853409F4ADC1809142038E7F809332
:10F5800042030E94C7F8803209F05DCF84E10E94F7
:10F5900093F880913E0390913F03892B51F200E054
:10F5A00010E020913C0230913D021AC081FD84C1DF
:10F5B000F90184910E9493F820913C0230913D0220
:10F5C0002F5F3F4F30933D0220933C020F5F1F4F50
:10F5D00080913E0390913F030817190708F0A9CFC7
:10F5E0008091420380FFE2CFC9010E94DCFC0E94AF
:10F5F00093F820913C0230913D022F5F3F4F3093B2
:10F600003D0220933C02E2CF88E080936000FFCF70
:10F610000E94C7F8813209F016CF0E94C7F88132E4
:10F6200009F011CF279A2F981092400381E40E948D
:10F6300093F8E0914003EF5FE0934003F0E0E05087
:10F64000FE4F8081882399F78AE00E9493F88DE02D
:10F650000E9493F88AE30E9493F880E20E9493F854
:10F660000E94C7F8182F0E9493F8143709F47FC13D
:10F67000123709F466C1173709F44CC1153709F47C
:10F6800040C1123609F47AC11A36F1F6E0913A0215
:10F69000F0913B020995D8CF0E94C7F880933F03B1
:10F6A0000E94C7F880933E03809142038E7F80932F
:10F6B00042030E94C7F8853409F417C180913E03C4
:10F6C00090913F03892B89F000E010E00E94C7F879
:10F6D000F801E25CFD4F80830F5F1F4F80913E0376
:10F6E00090913F030817190788F30E94C7F88032EA
:10F6F00009F0A2CE8091420380FF61C020913C02BC
:10F7000030913D02220F331F30933D0220933C0283
:10F7100080913E0390913F03892BE1F000E010E0DF
:10F72000F801E25CFD4FC90160810E94E4FC209178
:10F730003C0230913D022F5F3F4F30933D022093BA
:10F740003C020F5F1F4F80913E0390913F030817CB
:10F75000190730F384E10E9493F880E10E9493F846
:10F7600011E072CE0E94C7F80E94C7F8182F0E94BD
:10F77000C7F8112309F495C0113009F48DC083E056
:10F780000E945EF911E060CE0E94C7F8803351F309
:10F7900083E00E9441F980E00E945EF911E054CEBE
:10F7A00081E00E945EF911E04FCE80E10E945EF997
:10F7B00011E04ACE82E00E945EF911E045CE8091D0
:10F7C0003D028823880F880B8F21809341038BBFD4
:10F7D00080913C0290913D02880F991F90933D02C9
:10F7E00080933C0280913E0380FF09C080913E03DC
:10F7F00090913F03019690933F0380933E03F894CA
:10F80000F999FECF1127E0913C02F0913D02CEE341
:10F81000D2E080913E0390913F03103091F400912B
:10F82000570001700130D9F303E000935700E895C9
:10F830000091570001700130D9F301E100935700A6
:10F84000E895099019900091570001700130D9F3A3
:10F8500001E000935700E8951395103898F01127B0
:10F860000091570001700130D9F305E00093570073
:10F87000E8950091570001700130D9F301E1009340
:10F880005700E8953296029709F0C7CF103011F073
:10F890000296E5CF11245ECF87E90E945EF911E060
:10F8A000D3CD8EE10E945EF911E0CECDE0913A0217
:10F8B000F0913B02099572CDC901A0E0B0E0805003
:10F8C0009040AF4FBF4FABBFFC0187910E9493F8B0
:10F8D00073CE8091420381608093420352CE809127
:10F8E00042038260809342033CCE80914203816058
:10F8F00080934203E3CE0E947FF988E0809360000A
:10F90000FFCF0E94C7F80E9493F80E94C7F80E9498
:10F9100093F8F7CF0E94C7F80E9493F80E9436F937
:10F92000182F0E9436F9082F0E94C7F80E9493F8FA
:10F930000E9436F9D12ECC24F601E00FF11D808310
:10F9400083CE0E94C7F80E9493F80E9436F9182FC0
:10F950000E9436F9082F8DE30E9493F8F12EEE24D1
:10F96000F701E00FF11D80810E94A9F86DCE1F996B
:10F970001EC02F9A80E30E9493F866CE82E60E9412
:10F9800093F885E70E9493F883E70E9493F880E854
:10F9900085BF109274001092750080E091E1FC0127
:10F9A000819180E091E13097D1F3CF01F8CF2F988A
:10F9B00081E30E9493F848CEF999FECF92BD81BDB4
:10F9C000F89A992780B50895262FF999FECF1FBA86
:10F9D00092BD81BD20BD0FB6F894FA9AF99A0FBE78
:08F9E00001960895F894FFCF91
:10F9E80041546D656761424F4F54202F2041726426
:10F9F80075696E6F204D656761202D202843292089
:10FA080041726475696E6F204C4C43202D2030394B
:08FA1800303933300A0D008083
:040000031000F000F9
:00000001FF
