:107800000C94343C0C94513C0C94513C0C94513CE1
:107810000C94513C0C94513C0C94513C0C94513CB4
:107820000C94513C0C94513C0C94513C0C94513CA4
:107830000C94513C0C94513C0C94513C0C94513C94
:107840000C94513C0C94513C0C94513C0C94513C84
:107850000C94513C0C94513C0C94513C0C94513C74
:107860000C94513C0C94513C11241FBECFEFD8E036
:10787000DEBFCDBF11E0A0E0B1E0E0EEFFE702C067
:1078800005900D92A230B107D9F712E0A2E0B1E065
:1078900001C01D92AD30B107E1F70E94393D0C9453
:1078A000EE3F0C94003C982F959595959595959560
:1078B000905D8F708A307CF0282F295A8091C0000B
:1078C00085FFFCCF9093C6008091C00085FFFCCF60
:1078D0002093C6000895282F205DF0CF982F809127
:1078E000C00085FFFCCF9093C6000895EF92FF92F1
:1078F0000F931F932D98EE24FF2487018091C000E1
:1079000087FD17C00894E11CF11C011D111D81E4C5
:10791000E81682E4F8068FE0080780E0180770F3A5
:10792000E0910401F091050109958091C00087FF65
:10793000E9CF2D9A8091C6001F910F91FF90EF9093
:1079400008950E94763C982F8091C00085FFFCCF5F
:107950009093C60091362CF490330CF09053892FFD
:1079600008959755892F08951F930E94A13C182FC1
:107970000E94A13C1295107F810F1F9108951F93C3
:10798000182F882321F00E94763C1150E1F71F91B7
:1079900008951F93182F0E94763C803249F0809101
:1079A00003018F5F809303018530C1F01F9108951B
:1079B0008091C00085FFFCCF84E18093C600809158
:1079C000C00085FFFCCF1093C6008091C00085FFEA
:1079D000FCCF80E18093C6001F910895E0910401DF
:1079E000F091050109951F9108950E94763C80321F
:1079F00041F0809103018F5F80930301853081F016
:107A000008958091C00085FFFCCF84E18093C6007B
:107A10008091C00085FFFCCF80E18093C60008956F
:107A2000E0910401F09105010995089528E833E1FA
:107A300040E951E0FA013197F1F721503040D1F798
:107A400040E951E08823A1F02D9A28EE33E0FA01B5
:107A50003197F1F721503040D1F72D9820E233E0F3
:107A6000FA013197F1F721503040D1F7815061F799
:107A700008953F924F925F926F927F928F929F9262
:107A8000AF92BF92CF92DF92EF92FF920F931F932C
:107A9000CF93DF9394B714BE809160008861809388
:107AA00060001092600091FFE8C180E18093C40003
:107AB0001092C50088E18093C10086E08093C200E7
:107AC0005098589A259A84E00E94163D83E00E94BF
:107AD000163D10E034E1F32E2EE1E22E95E9D92E89
:107AE0008FE0C82E00E1B02EAA24A394B1E49B2E0F
:107AF000A6E58A2EF2E57F2EE0E26E2E79E4572E7F
:107B000063E5462E50E5352E0E94763C8033B1F178
:107B1000112309F4A1C08133E1F1803409F475C067
:107B2000813409F47CC0823409F490C0853409F4AE
:107B300086C0803519F1823509F1813509F41AC200
:107B4000853509F432C1863509F400C1843609F45B
:107B500096C0843709F434C1853709F404C18637E7
:107B600009F468C0809103018F5F80930301853021
:107B700049F011E00E94763C803351F60E94F53CBA
:107B800011E0F8CFE0910401F0910501099511E0B1
:107B9000F1CF0E94763C803229F78091C00085FFAA
:107BA000FCCFF092C6008091C00085FFFCCF909280
:107BB000C6008091C00085FFFCCF8092C6008091F6
:107BC000C00085FFFCCF7092C6008091C00085FF89
:107BD000FCCF6092C6008091C00085FFFCCF509220
:107BE000C6008091C00085FFFCCF4092C600809106
:107BF000C00085FFFCCF3092C6008091C00085FF99
:107C0000FCCFB092C60011E0B5CF0E94763C86381A
:107C100008F4B4CF0E94763C0E94F53CB1CF0E949C
:107C2000763C803839F1813801F1823809F42BC172
:107C30008839B1F080E00E94C93C11E09BCF85E01B
:107C40000E94BF3C0E94F53C11E094CF84E10E9469
:107C5000BF3C0E94F53C94CF88E080936000FFCF4A
:107C600083E00E94C93C11E085CF81E00E94C93CBD
:107C700011E080CF82E00E94C93C11E07BCF0E94DE
:107C8000763C809309020E94763C809308028091A2
:107C90000C028E7F80930C020E94763C853409F49E
:107CA000F7C08091080290910902892B89F000E0C9
:107CB00010E00E94763CF801E85FFE4F80830F5F82
:107CC0001F4F80910802909109020817190788F345
:107CD0000E94763C803209F045CF80910C0280FFF3
:107CE000DDC02091060130910701220F331F309330
:107CF0000701209306016091080270910902611545
:107D00007105C9F0E8E0F1E0A901DB01AE0FBF1F8A
:107D1000F999FECF52BD41BD819180BDFA9AF99A81
:107D20004F5F5F4FEA17FB0799F7260F371F309316
:107D30000701209306018091C00085FFFCCFF092DF
:107D4000C6008091C00085FFFCCF5BCF0E94763CCF
:107D5000803309F415C183E00E94BF3C80E00E949B
:107D6000C93C11E007CF0E94763C803209F0FACE80
:107D70008091C00085FFFCCFF092C6008091C000CA
:107D800085FFFCCFE092C6008091C00085FFFCCF4C
:107D9000D092C6008091C00085FFFCCFC092C60083
:107DA0008091C00085FFFCCF2CCF0E94763C809351
:107DB00006010E94763C809307010E94F53CE0CECC
:107DC0000E94763C809309020E94763C80930802D0
:107DD0008091060190910701880F991F90930701E8
:107DE000809306010E94763C853409F440C080915E
:107DF0000C028E7F80930C020E94763C803209F048
:107E0000B8CE8091C00085FFFCCFF092C600A09153
:107E10000802B0910902109709F4D1C080910C02B8
:107E2000182F1170082F0270E0910601F0910701E0
:107E30009F012F5F3F4FB90140E050E0112309F04F
:107E4000AFC0002339F494918091C00085FFFCCF2E
:107E50009093C6004F5F5F4FCB010196F9014A171F
:107E60005B0708F0A8C0BC012F5F3F4FE7CF8091B0
:107E70000C02816080930C02BFCFE0910401F0916D
:107E80000501099512CE80E10E94C93C11E072CE35
:107E900080910C02816080930C0203CF80910701D6
:107EA0008823880F880B8A2180930B02809106011A
:107EB00090910701880F991F909307018093060105
:107EC0008091080280FF09C0809108029091090208
:107ED00001969093090280930802F894F999FECFD5
:107EE0001127E0910601F0910701C8E0D1E08091EF
:107EF000080290910902103091F40091570001702E
:107F00000130D9F303E000935700E8950091570042
:107F100001700130D9F301E100935700E895099011
:107F200019900091570001700130D9F301E00093DE
:107F30005700E8951395103498F0112700915700D9
:107F400001700130D9F305E000935700E8950091E6
:107F5000570001700130D9F301E100935700E89513
:107F60003296029709F0C7CF103011F00296E5CF94
:107F70001124E1CE0E94F53C88E080936000FFCFA1
:107F80000E94763C0E94763C182F0E94763C11237A
:107F900001F11130C9F08FE00E94C93C11E0EACD37
:107FA000F999FECFF2BDE1BDF89A90B58091C0007D
:107FB00085FFFCCF4DCF7093070160930601809140
:107FC000C00085FFFCCF1DCE85E90E94C93C11E0B1
:107FD000D1CD8EE10E94C93C11E0CCCDF894FFCF09
:027FE00080001F
:040000030000780081
:00000001FF
